:020000040000FA
:0400000080313828EB
:100008007E1480318B1E09280A2836280B1D0D28DE
:100018000E283628200095010B110130A407003066
:10002800A53D2508803AF00080307002031D1E2887
:100038007D302402031C2128222836282000A40110
:10004800A5010130B2070030B33D3C30320633041D
:10005800031D2F28302836280130B4070030B53D5D
:10006800B201B3017E10090080313A28EA308400D9
:1000780087308500403086000030870016308D318B
:100088002E258031203084000030850020308D31CD
:10009800282580317E1020008E31242E2000E50195
:1000A800E60100308D31582580312000DF00E00165
:1000B8005F08E3006008E4006408B9006308B8005A
:1000C80001308D31582580312000DF00E0015F08C4
:1000D800E5006008E6006608B7006508B600380A5B
:1000E80039040319782879287F28360A3704031D2C
:1000F8007E287F288328B801B901B601B7010230EC
:100108008D31582580312000DF00E0015F08E300D1
:100118006008E40003308D31582580312000DF006D
:10012800E0015F08E5006008E6006408A7006308CE
:10013800A6000830A635A70D890B9E286508A604D9
:100148006608A704260A031DAD28270A031DAD2843
:10015800AE28C628A601A7010130A6070030A73D92
:100168002708DF005F08F10002308D31FA25803161
:1001780020002608DF005F08F10003308D31FA25E2
:100188008031DB280130A6070030A73D2708DF00B3
:100198005F08F10002308D31FA25803120002608F1
:1001A800DF005F08F10003308D31FA25803104301B
:1001B8008D31582580312000DF00E0015F08E30021
:1001C8006008E40005308D31582580312000DF00BB
:1001D800E0015F08E5006008E6006408A90063081C
:1001E800A8000830A835A90D890BF6286508A804C9
:1001F8006608A904280A031D0529290A031D0529DB
:1002080006291929A801A9012908DF005F08F100BA
:1002180004308D31FA25803120002808DF005F087E
:10022800F10005308D31FA25803101302000D900E8
:100238000030DA00E830F7000330F8002708FA0049
:100248002608F9008E318926803178082000DC00E4
:100258007708DB008F31A627803105302000D900D0
:100268000030DA006430F7000030F8002708F400A6
:100278002608F300E830F1000330F2008E315526ED
:1002880080317208FA007108F9008E3189268031B0
:1002980078082000DC007708DB008F31A627803142
:1002A80020002708F4002608F300E830F1000330A6
:1002B800F2008E315526803172082000E80071085E
:1002C800E7000730D9000030DA000A30F7000030C4
:1002D800F8006808F4006708F3006430F1000030A3
:1002E800F2008E31552680317208FA007108F90043
:1002F8008E318926803178082000DC007708DB0001
:100308008F31A627803120002708F4002608F30043
:10031800E830F1000330F2008E3155268031720842
:100328002000E8007108E7006808F4006708F30097
:100338006430F1000030F2008E31552680317208A9
:100348002000E2007108E1000330D9000030DA0033
:100358000A30F1000030F2006208F4006108F3008E
:100368008E315526803172082000DC007108DB00D0
:100378008F31A627803108302000D9000030DA00FC
:10038800E830F7000330F8002908FA002808F900D7
:100398008E318926803178082000DC007708DB0060
:1003A8008F31A627803106302000D9000030DA00CE
:1003B8006430F7000030F8002908F4002808F3003A
:1003C800E830F1000330F2008E3155268031720892
:1003D800FA007108F9008E318926803178082000EA
:1003E800DC007708DB008F31A62780312000290840
:1003F800F4002808F300E830F1000330F2008E31F1
:100408005526803172082000E8007108E7000230A4
:10041800D9000030DA000A30F7000030F800680828
:10042800F4006708F3006430F1000030F2008E3108
:10043800552680317208FA007108F9008E31892634
:10044800803178082000DC007708DB008F31A62790
:10045800803120002908F4002808F300E830F10072
:100468000330F2008E315526803172082000E800F2
:100478007108E7006808F4006708F3006430F100C9
:100488000030F2008E315526803172082000E200DB
:100498007108E1000430D9000030DA000A30F100B8
:1004A8000030F2006208F4006108F3008E3155262E
:1004B800803172082000DC007108DB008F31A6272C
:1004C800803100302000A3000030A2000030A100DD
:1004D8000030A000A31B7C2A2308031D7D2A20309E
:1004E8002002A130213B0730223B031C7C2A7D2AB5
:1004F8007E2A872A0130A0070030A13D0030A23DA6
:100508000030A33D6E2A0800200035083106031D7F
:100518008F2A340830060319922A932AC62A3508E6
:10052800B1003408B0000830D9000030DA000A30D1
:10053800F1000030F2003508F4003408F300873188
:100548008B27823172082000DC007108DB008F31B4
:10055800A627823106302000D9000030DA000A30A0
:10056800F1000030F2003508F4003408F3008F3150
:100578005327823172082000DC007108DB008F31BC
:10058800A6278231200033082F06031DCD2A320802
:100598002E060319D02AD12A252B2A082B04031941
:1005A800D62AD72AE42AAA01AB010130F10000308B
:1005B800F2000030F300F40087311F278231F12A5E
:1005C8000130AA000030AB000030F100F20000302A
:1005D800F300F40087311F27823120003308AF0071
:1005E8003208AE000230D9000030DA000A30F100DB
:1005F8000030F2003308F4003208F30087318B270B
:10060800823172082000DC007108DB008F31A627D8
:10061800823104302000D9000030DA000A30F100BD
:100628000030F2003308F4003208F3008F3153270A
:10063800823172082000DC007108DB008F31A627A8
:100648008231200035083906031D2C2B3408380662
:10065800031D2F2B302B3A2C33083706031D362B5E
:1006680032083606031D392B3A2B3A2C0130F1009B
:100678000030F2000030F300F40087311F27823188
:1006880008302000D9000030DA000A30F1000030CC
:10069800F2003508F4003408F30087318B278231E3
:1006A80072082000DC007108DB008F31A627823138
:1006B80006302000D9000030DA000A30F10000309E
:1006C800F2003508F4003408F3008F3153278231E3
:1006D80072082000DC007108DB008F31A627823108
:1006E80002302000D9000030DA000A30F100003072
:1006F800F2003308F4003208F30087318B27823187
:1007080072082000DC007108DB008F31A6278231D7
:1007180004302000D9000030DA000A30F10000303F
:10072800F2003308F4003208F3008F315327823186
:1007380072082000DC007108DB008F31A6278231A7
:100748008D31222582310130F1000030F2008D31E7
:100758003425823100302000A3000030A200003090
:10076800A1000030A000A31BC32B2308031DC42B2A
:10077800093021023D30223B031CC32BC42BC52B5F
:10078800CE2B0130A0070030A13D0030A23D003043
:10079800A33DB72B0030F100F2008D3134258231B2
:1007A8002000AC01AD01B401B501B201B3010830BC
:1007B800D9000030DA000A30F1000030F2003508C4
:1007C800F4003408F30087318B2782317208200047
:1007D800DC007108DB008F31A6278231063020004B
:1007E800D9000030DA000A30F1000030F200350894
:1007F800F4003408F3008F31532782317208200047
:10080800DC007108DB008F31A6278231023020001E
:10081800D9000030DA000A30F1000030F200330865
:10082800F4003208F30087318B27823172082000E8
:10083800DC007108DB008F31A627823104302000EC
:10084800D9000030DA000A30F1000030F200330835
:10085800F4003208F3008F315327823172082000E8
:10086800DC007108DB008F31A627823108002000E8
:10087800E201E3010A30E0000030E100013020002D
:10088800E2000030E30020006308DA006208D900C3
:100898006008FF3EDB00FF30613DDC008F31A6279A
:1008A800843101302000E2070030E33D6308803ADC
:1008B800DF0080305F02031D632C09306202031CD5
:1008C800662C672C472C00302000A3000030A200C3
:1008D8000030A1000030A000A31B7E2C2308031DBC
:1008E8007F2C403020020D30213B0330223B031C7B
:1008F8007E2C7F2C802C892C0130A0070030A13D54
:100908000030A23D0030A33D702CFF30E007FF30DF
:10091800E13D6108803ADF0080305F02031D962CBC
:10092800013060020318992C9A2C422C0130F100F6
:100938000030F2000130F3000030F40087311F2747
:1009480084310130F1000030F2000030F300F4008F
:1009580087311F27843101302000D9000030DA00A8
:100968000A30F1000030F2003908F4003808F300CA
:1009780087318B27843172082000DC007108DB0086
:100988008F31A627843105302000D9000030DA00E5
:100998000A30F1000030F2003908F4003808F3009A
:1009A8008F315327843172082000DC007108DB0086
:1009B8008F31A627843107302000D9000030DA00B3
:1009C8000A30F1000030F2003708F4003608F3006E
:1009D80087318B27843172082000DC007108DB0026
:1009E8008F31A627843103302000D9000030DA0087
:1009F8000A30F1000030F2003708F4003608F3003E
:100A08008F315327843172082000DC007108DB0025
:100A18008F31A627843108302000D9000030DA0051
:100A28000A30F1000030F2003508F4003408F30011
:100A380087318B27843172082000DC007108DB00C5
:100A48008F31A627843106302000D9000030DA0023
:100A58000A30F1000030F2003508F4003408F300E1
:100A68008F315327843172082000DC007108DB00C5
:100A78008F31A627843102302000D9000030DA00F7
:100A88000A30F1000030F2003308F4003208F300B5
:100A980087318B27843172082000DC007108DB0065
:100AA8008F31A627843104302000D9000030DA00C5
:100AB8000A30F1000030F2003308F4003208F30085
:100AC8008F315327843172082000DC007108DB0065
:100AD8008F31A62784310130F1000030F2008D31CA
:100AE8003425843100302000A3000030A2000030FB
:100AF800A1000030A000A31B8D2D2308031D8E2DFF
:100B0800A03020028630213B0130223B031C8D2D72
:100B18008E2D8F2D982D0130A0070030A13D00307B
:100B2800A23D0030A33D7F2D0030F100F2008D3151
:100B38003425843108008D31882585317108720487
:100B48000319A72DA82D912E20003808DF005F0873
:100B5800F10000308D31FA25853120003608DF009C
:100B68005F08F10001308D31FA2585312000B4018C
:100B7800B501B201B3010130F1000030F2008D314E
:100B88003425853100302000A3000030A200003059
:100B9800A1000030A000A31BDD2D2308031DDE2DBE
:100BA800A03020028630213B0130223B031CDD2D82
:100BB800DE2DDF2DE82D0130A0070030A13D0030EB
:100BC800A23D0030A33DCF2D0030F100F2008D3161
:100BD8003425853120003708803ADF0080305F02F5
:100BE800031DF82D033036020318FB2DFC2D0A2EA9
:100BF80020003908803ADF0080305F02031D062E8E
:100C080001303802031C092E0A2E912E8D311C2525
:100C1800853101302000AC000030AD000130A8075C
:100C28000030A93D2908DF005F08F10004308D314C
:100C3800FA25853120002808DF005F08F10005301B
:100C48008D31FA2585310130F1000030F200003095
:100C5800F300F40087311F27853108302000D900C0
:100C68000030DA000A30F1000030F2003508F400F4
:100C78003408F30087318B27853172082000DC00A7
:100C88007108DB008F31A627853106302000D90096
:100C98000030DA000A30F1000030F2003508F400C4
:100CA8003408F3008F315327853172082000DC00A7
:100CB8007108DB008F31A627853102302000D9006A
:100CC8000030DA000A30F1000030F2003308F40096
:100CD8003208F30087318B27853172082000DC0049
:100CE8007108DB008F31A627853104302000D90038
:100CF8000030DA000A30F1000030F2003308F40066
:100D08003208F3008F315327853172082000DC0048
:100D18007108DB008F31A627853108008D31D42575
:100D280086317108720403199A2E9B2ED82E013031
:100D38002000B8070030B93D3C3038063904031D9F
:100D4800A62EA72EA92EB801B9010130D90000306E
:100D5800DA000A30F1000030F2003908F4003808EF
:100D6800F30087318B27863172082000DC00710878
:100D7800DB008F31A627863105302000D9000030EE
:100D8800DA000A30F1000030F2003908F4003808BF
:100D9800F3008F315327863172082000DC00710878
:100DA800DB008F31A62786318D31AE25863171085B
:100DB80072040319E02EE12E1E2F01302000B60721
:100DC8000030B73D3C3036063704031DEC2EED2EBF
:100DD800EF2EB601B7010730D9000030DA000A302B
:100DE800F1000030F2003708F4003608F3008731CC
:100DF8008B27863172082000DC007108DB008F31F8
:100E0800A627863103302000D9000030DA000A30E6
:100E1800F1000030F2003708F4003608F3008F3193
:100E28005327863172082000DC007108DB008F31FF
:100E3800A6278631080071037204031D242F252F6D
:100E4800552F73037404031D2A2F2B2F402FF601EF
:100E5800F70176084B3E8600870181150130F607B9
:100E68000030F73D003077020A3003197602031C80
:100E78003E2F3F2F2D2F8A2FF601F7017608403E8F
:100E88008600870101160130F6070030F73D003073
:100E980077020A3003197602031C532F542F422F6E
:100EA8008A2F73037404031D5A2F5B2F732FF601C7
:100EB800F701F730F50076084B3E86008701750884
:100EC80081050130F6070030F73D003077020A301F
:100ED80003197602031C712F722F5D2F8A2FF601DA
:100EE800F701EF30F5007608403E86008701750867
:100EF80081050130F6070030F73D003077020A30EF
:100F080003197602031C892F8A2F752F0800F70111
:100F1800F21F8F2F902F972FF109F209F10A031969
:100F2800F20AF701F70AF41F9A2F9B2FA42FF3094F
:100F3800F409F30A0319F40A0130F5007508F706F5
:100F4800F801F901710872040319AB2FAC2FDB2FDC
:100F5800F601F60AB82F0130F135F20D890BB02FE2
:100F68000130F5007508F607F21FBB2FBC2FAF2F15
:100F78000130F835F90D890BBD2F72087402031D75
:100F8800C72F71087302031CCA2FCB2FD02F7108EB
:100F9800F3027208F43B78140130F236F10C890B35
:100FA800D12F0130F602031DDA2FDB2FBC2F770873
:100FB8000319DF2FE02FE52FF809F909F80A0319BB
:100FC800F90A7908F2007808F1000800CF340334F0
:100FD800AE342F3463346D34ED340B34EF346F3466
:100FE8000034F5346034B634F2346334D334D7344F
:080FF8007034F734F3340034C7
:101A2C0021008C168C158E160E16080020009501C0
:101A3C000B118B168B170800200095010B118B12C4
:101A4C008B130800640080010131890B292D0034AF
:101A5C00FE0012001E00FE0B2F2D0034710C220014
:101A6C00031C0C1203180C16080022000C100C128C
:101A7C0021000C100C12080021001908873970384D
:101A8C009900FC3099059917080020009501210058
:101A9C00951295110730950495120B170B118B129B
:101AAC008B130800F4006400230095185E2D5F2D45
:101ABC00592D7408F100F20171089100720892001E
:101ACC003F30F30073089505151413080800003017
:101ADC00200057020F30031956020318762D772D6C
:101AEC00872D22000E110A30F1000030F200200088
:101AFC005708F4005608F3008E31C6268D312200AB
:101B0C000E15080020000E1E8C2D8D2DA62D0130DB
:101B1C00BA070030BB3D3B08803AF300A730730294
:101B2C00031D9A2D11303A02031C9D2D9E2DAB2DB9
:101B3C002000BA01BB010130F1000030F200AD2DE4
:101B4C00BA01BB01F101F201AD2DF101F201080066
:101B5C0020008E1EB22DB32DCC2D0130BC070030D1
:101B6C00BD3D3D08803AF300A7307302031DC02D24
:101B7C0011303C02031CC32DC42DD12D2000BC01FF
:101B8C00BD010130F1000030F200D32DBC01BD01CC
:101B9C00F101F201D32DF101F201080020008C1D9E
:101BAC00D82DD92DF22D0130BE070030BF3D3F0896
:101BBC00803AF300A7307302031DE62D11303E026C
:101BCC00031CE92DEA2DF72D2000BE01BF010130C9
:101BDC00F1000030F200F92DBE01BF01F101F2015C
:101BEC00F92DF101F2010800F40023009518FF2DE6
:101BFC00002EFB2D7408F200F3017208910073089B
:101C0C009200710893003F30F20072089505200095
:101C1C0003108B1F122E132E142E03148B13230060
:101C2C00151555309600AA30960095141511200004
:101C3C00031C212E222E232E8B1708008D314225BA
:101C4C008E318D3116258E318D313B258E318D3176
:101C5C004B258E318F3108278E3108302000D6006D
:101C6C000030D7008D316D258E31803152208E3170
:101C7C0084313B248E31863192268E3120002C0308
:101C8C002D04031D4A2E4B2E4F2E823188228E316D
:101C9C00412E85319F258E31412E80313828710897
:101CAC00720403195A2E5B2E842EF601F60A672E47
:101CBC000130F135F20D890B5F2E0130F5007508FE
:101CCC00F607F21F6A2E6B2E5E2E72087402031D2D
:101CDC00712E71087302031C742E752E792E7108E7
:101CEC00F3027208F43B0130F236F10C890B7A2EB8
:101CFC000130F602031D832E842E6B2E7408F20025
:101D0C007308F10008002000D601D7017708780489
:101D1C000319912E922EC12ED801D80A9E2E013075
:101D2C00F735F80D890B962E0130FB007B08D80790
:101D3C00F81FA12EA22E952E0130D635D70D890B6A
:101D4C00A32E78087A02031DAD2E77087902031CA6
:101D5C00B02EB12EB62E7708F9027808FA3B56143D
:101D6C000130F836F70C890BB72E0130D802031D61
:101D7C00C02EC12EA22E5708F8005608F7000800F6
:101D8C00F901FA017208FA007108F9000830F93506
:101D9C00FA0D890BCD2E7308F9077408FA3DFF3044
:101DAC00F9050F30FA0522000E111030FB0000303F
:101DBC00FC000130F5000030F6007B08FF3E890A7C
:101DCC00E92EF535F60D890BE72E79087505F70028
:101DDC007A087605F800770878040319F62EF72EA2
:101DEC00F92E8E14FA2E8E108E158E110130FB02E8
:101DFC000030FC3B7B087C04031D052F062FDF2ED7
:101E0C000E15080022000E1521008E100E118E11D9
:101E1C0022000E110930F1000030F2000030F30006
:101E2C00F4008E31C6268F3122000E150E110A30A9
:101E3C00F1000030F2000030F300F4008E31C626C1
:101E4C008F3122000E150E110B30F1000030F20014
:101E5C000730F3000030F4008E31C6268F3122009B
:101E6C000E150E110C30F1000030F2000130F300B1
:101E7C000030F4008E31C6268F3122000E150E1163
:101E8C000F30F1000030F2000030F300F4008E311E
:101E9C00C6268F3122000E150800F701F41F572FAC
:101EAC00582F5F2FF309F409F30A0319F40AF70109
:101EBC00F70AF21F622F632F682FF109F209F10A5A
:101ECC000319F20A7108720403196D2F6E2F972FE4
:101EDC00F601F60A7A2F0130F135F20D890B722FCB
:101EEC000130F5007508F607F21F7D2F7E2F712F3C
:101EFC0072087402031D842F71087302031C872F50
:101F0C00882F8C2F7108F3027208F43B0130F236E3
:101F1C00F10C890B8D2F0130F602031D962F972F94
:101F2C007E2F770803199B2F9C2FA12FF309F409FF
:101F3C00F30A0319F40A7408F2007308F10008009C
:101F4C00200059085A040319AC2FAD2FFF2F003075
:101F5C005A020930031959020318B52FB62FFF2F57
:101F6C0000305C020A3003195B020318BE2FBF2F2E
:101F7C00FF2F59035A040319C42FC52FDA2F05302C
:101F8C0059065A040319CB2FCC2FDA2F07305906D8
:101F9C005A040319D22FD32FDA2F033059065A04BF
:101FAC00031DD92FDA2FED2F5A08F2005908F10032
:101FBC005B084B3E860087010108DD00DE015D08F1
:101FCC00F3005E08F4008E31C6268F31FF2F5A08BD
:101FDC00F2005908F1005B08403E860087010108B9
:101FEC00DD00DE015D08F3005E08F4008E31C626CC
:041FFC008F31080019
:020000040001F9
:04000E0084D9FFDDB5
:00000001FF
